S0130000454D5F4D414144493534362E7372656325
S11300000C942A000C94A10F0C94C80F0C94EF0FBD
S11300100C94E0100C94B9100C9447000C94320624
S11300200C9447000C9447000C9470100C944910E5
S11300300C9447000C9447000C9447000C94470020
S11300400C9447000C9447000C9447000C94470010
S11300500C94470011241FBECFE5D8E0DEBFCDBF0E
S113006010E0A0E6B0E0EAE8F7E202C005900D92E5
S1130070A038B107D9F725E0A0E8B0E001C01D928F
S1130080A832B207E1F70E94FB020C94C3130C944C
S11300900000D0E080E090E00E94140EC0912105A1
S11300A02C2F30E0082F10E0A801455051094217C9
S11300B0530714F4D13081F5A8014C5F5F4F241726
S11300C03507E4F441E062E082E00E94E00E40E0A3
S11300D067E082E00E94E00E80918A00811107C0EF
S11300E041E065E082E00E94E00ED1E015C040E00E
S11300F065E082E00E94E00ED1E00EC0C4E0C80FCB
S113010059F040E062E082E00E94E00E40E065E0E9
S113011082E00E94E00ED0E08C2F90E00B5F1F4F36
S113012080179107CCF041E065E082E00E94E00E88
S113013040E062E082E00E94E00E41E067E082E09D
S11301400E94E00E40E064E082E00E94E00E41E0A4
S113015063E082E00E94E00E84E190E00E94050CDE
S113016099CF60E081E00E94530F813071F5809156
S1130170860081112AC060E081E00E94530F813023
S1130180D1F341E061E081E00E946D0E41E062E064
S113019081E00E946D0E41E062E082E00E946D0EFB
S11301A041E067E082E00E946D0E41E065E082E09C
S11301B00E946D0E41E063E083E00E94E00E8091B6
S11301C086008F5F8093860030C060E081E00E94EB
S11301D0530F813051F580918600813031F560E014
S11301E081E00E94530F8130D1F340E061E081E06F
S11301F00E946D0E40E062E081E00E946D0E40E0DE
S113020062E082E00E946D0E40E067E082E00E94BE
S11302106D0E40E065E082E00E946D0E40E063E018
S113022083E00E94E00E1092860020E044E650E055
S113023066E870E080912205909123050E94800772
S113024084E190E00E94050C8CCF20E044E650E06D
S113025069E870E080912205909123050E941208BC
S113026062E083E00E94530F813039F066E083E05E
S11302700E94530F813009F0D3C062E083E00E94F2
S1130280530F8130D1F366E083E00E94530F813035
S1130290A1F320E04AE050E060E070E080912605A0
S11302A0909127050E94120880918900813009F0FD
S11302B0ACC080E090E00E94140E8093880010E0AF
S11302C0A1C060E081E00E94530F813009F49DC019
S11302D0809187008F5F80938700873159F440E0D5
S11302E061E081E00E946D0E40E062E081E00E94E6
S11302F06D0E0EC08B3161F441E061E081E00E943B
S11303006D0E41E062E081E00E946D0E1092870064
S113031062E083E00E94530F8130B1F48091880041
S1130320873490F462E083E00E94530F8130D1F36C
S1130330609188006B5F6093880080E090E00E9489
S1130340F60D1092870010E066E083E00E94530FE0
S11303508130B1F480918800883290F066E083E0C7
S11303600E94530F8130D1F36091880065506093EF
S1130370880080E090E00E94F60D1092870010E063
S1130380209188008DEC289F812D1124C82FC695BB
S1130390C695C695CC0F9C2F990F990FC90F2C1B8E
S11303A0C22FD82FD695D695D69541E062E081E04C
S11303B00E94E00E40E061E081E00E94E00E8D2F9B
S11303C00E943E0E2FEF89EF90E021508040904034
S11303D0E1F700C0000041E061E081E00E94E00E2E
S11303E040E062E081E00E94E00E8C2F0E943E0E0D
S11303F02FEF89EF90E0215080409040E1F700C05A
S113040000001F5F193F08F45CCF20E040E050E09B
S113041060E070E080912605909127050E94800796
S113042084E190E00E94050C10CF20E04AE050E007
S113043060E070E080912605909127050E941208E3
S113044090912105DDEC9D9FD12D11241D2F169532
S113045016951695110F812F880F880F180F911B71
S1130460192FD695D695D695C0E02DC041E062E00F
S113047081E00E94E00E40E061E081E00E94E00E35
S11304808D2F0E943E0E2FEF89EF90E02150804087
S11304909040E1F700C0000041E061E081E00E948B
S11304A0E00E40E062E081E00E94E00E812F0E94B5
S11304B03E0E2FEF89EF90E0215080409040E1F70D
S11304C000C00000CF5FC23088F220E040E050E07E
S11304D060E070E080912605909127050E948007D6
S11304E084E190E00E94050CA0CF0F931F93CF935B
S11304F0809184009091850001969093850080936B
S1130500840020918200309183002F5F3F4F30930D
S11305108300209382000A9709F054C080E00E946F
S11305205C0EBC0180E090E00E949D1220E030E06F
S11305304AEF53E40E942B1320E030EC4FE754E4DD
S11305400E94FC110091800010918100F801EE0FCF
S1130550FF1FEE0FFF1FE750FB4F60837183828301
S11305609383C0E060E070E0CB010FC0EC2FF0E0BB
S1130570EE0FFF1FEE0FFF1FE750FB4F208131816D
S1130580428153810E949011CF5FCA3078F30E9458
S11305906E122AE030E040E050E00E94981320936D
S11305A021050F5F1F4F10938100009380000A30D4
S11305B0110521F4109281001092800010928500A0
S11305C0109284008091820090918300843691057A
S11305D071F480918A00813019F410928A0003C06A
S11305E081E080938A001092830010928200CF9160
S11305F01F910F910895EF92FF920F9380E00E9454
S113060007110E94161081E00E941A1061E085E72C
S113061092E00E943A106CE380E090E00E94F60DB4
S113062040E060E081E00E946D0E40E062E083E023
S11306300E946D0E40E066E083E00E946D0E41E092
S113064063E083E00E946D0E40E064E083E00E947A
S11306506D0E41E067E083E00E946D0E41E063E0CF
S113066082E00E946D0E41E064E082E00E946D0E23
S113067083E60E9497100E944C0EE12CF12C02E0BC
S113068020E030E040E550E062E670E085E291E091
S11306900E94550A03E020E030E040E550E068E6BF
S11306A070E085E192E00E94550A04E020E030E029
S11306B040E550E06EE670E089E490E00E94550A5F
S11306C001E020E030E040E550E064E770E081EBD9
S11306D090E00E94550A43E060E081E00E945607E2
S11306E0909327058093260540E061E081E00E9415
S11306F0560790932305809322050E94A90A80E05F
S113070090E00F91FF90EF900895E0E9F0E085E923
S113071090E09183808313821282ECE8F0E087EE0C
S113072093E09383828311821082A4E9B0E014964B
S11307309C938E9313971296FC93EE9311970895BE
S11307400F931F93CF93DF93EC010E94D30A809100
S11307508B00811105C00E94850381E080938B008A
S1130760209709F02496CE010197863E934008F025
S113077056C0E0919000F0919100A0E9B0E002C071
S1130780DF01FC01828193818C179D0720F4808115
S113079091810097A9F780E0EC38F80709F442C08A
S11307A00D911C9111970C5F1F4F808191818D9346
S11307B09C93828193818C1B9D0B8930910510F150
S11307C0AF014C0F5D1FDA0113969C938E93129721
S11307D0D383C28312962D913C91139760E970E004
S11307E001C0BD01EB01A881B98112968D919C9144
S11307F0139782179307A8F3EA01B983A883DB014F
S11308004D935C93228133818091600090916100CB
S1130810821B930B909361008093600005C000E0FD
S113082010E002C000E010E00E94930BC801DF91C9
S1130830CF911F910F9108950F931F93CF93DF933F
S1130840009741F1EC018C01045011090E94D30A74
S1130850F80142815381A0E9B0E001C0DF01ED91CC
S1130860FC9111972281338124173507B8F324971B
S1130870F983E8830D931C938A819B812091600006
S113088030916100820F931F909361008093600008
S11308900E94930BDF91CF911F910F910895FC015A
S11308A00396928381832FEF3FEF348323839683D0
S11308B085839087878310820895FC0111861086B2
S11308C00895CF93DF939C01FB01DC011196CD9138
S11308D0DC911297D383C2838C819D819583848319
S11308E08C819D81DC0113967C936E9312977D839A
S11308F06C8331872087F90180818F5F8083DF914A
S1130900CF910895CF93DF93EB01488159814F3FF5
S11309102FEF520721F4FC01A781B0850DC0DC0143
S1130920139601C0DF011296ED91FC91139720817B
S1130930318142175307B0F71296ED91FC9113974A
S1130940FB83EA83D583C483BD83AC831396DC9392
S1130950CE93129799878887FC0120812F5F20838B
S1130960DF91CF910895CF93DF93FC01A085B185EA
S1130970C281D381848195819D838C83C481D581F7
S1130980828193819B838A8311968D919C91129786
S1130990E817F90731F48481958112969C938E931C
S11309A01197118610868C9181508C93DF91CF9191
S11309B008951BBC89EF8ABD8BE08EBD89B7806129
S11309C089BF089531E1FC013083319722E220830D
S11309D03197A3E3A0833197608331977083319774
S11309E01082319760E8608331971082319762E01A
S11309F06083319763E06083319764E0608331976B
S1130A0065E06083319766E06083319767E06083D7
S1130A10319768E06083319769E06083319760E1E2
S1130A20608331973083319732E13083319733E1FA
S1130A303083319734E13083319735E13083319716
S1130A4036E13083319737E13083319738E13083B1
S1130A50319739E13083319730E23083319731E295
S1130A60308331972083319723E220833197408369
S1130A7031975083319726E22083319727E22083F0
S1130A80319728E22083319729E22083319720E3AC
S1130A902083319721E32083869708950E94D90407
S1130AA0A091E904B091EA04CD91CDBFDD91DEBF00
S1130AB0FF91EF91DF91CF91BF91AF919F918F9172
S1130AC07F916F915F914F913F912F911F910F9162
S1130AD0FF90EF90DF90CF90BF90AF909F908F905A
S1130AE07F906F905F904F903F902F901F900F904A
S1130AF00FBE0F90089581E008950F920FB6F894F9
S1130B000F921F9211242F923F924F925F926F92F5
S1130B107F928F929F92AF92BF92CF92DF92EF9289
S1130B20FF920F931F932F933F934F935F936F9372
S1130B307F938F939F93AF93BF93CF93DF93EF9361
S1130B40FF93A091E904B091EA040DB60D920EB69C
S1130B500D920E944C0CA091E904B091EA04CD914D
S1130B60CDBFDD91DEBFFF91EF91DF91CF91BF91BA
S1130B70AF919F918F917F916F915F914F913F9131
S1130B802F911F910F91FF90EF90DF90CF90BF9026
S1130B90AF909F908F907F906F905F904F903F9019
S1130BA02F901F900F900FBE0F9008950F920FB6C5
S1130BB0F8940F921F9211242F923F924F925F92BA
S1130BC06F927F928F929F92AF92BF92CF92DF9259
S1130BD0EF92FF920F931F932F933F934F935F9343
S1130BE06F937F938F939F93AF93BF93CF93DF9331
S1130BF0EF93FF93A091E904B091EA040DB60D922E
S1130C000EB60D920E94D90A81110E944C0CA0913B
S1130C10E904B091EA04CD91CDBFDD91DEBFFF912F
S1130C20EF91DF91CF91BF91AF919F918F917F9180
S1130C306F915F914F913F912F911F910F91FF9071
S1130C40EF90DF90CF90BF90AF909F908F907F9068
S1130C506F905F904F903F902F901F900F900FBE1A
S1130C600F9008950E94D60518950FB6F8940F9228
S1130C70FC01828D811102C081E001C080E00F90EF
S1130C800FBE08950FB6F8940F92FC01228D838D48
S1130C90281302C081E001C080E00F900FBE0895C8
S1130CA00F931F93CF93DF93EC01042F1A8D4C8D78
S1130CB041110CC088819981892B09F042C08A8135
S1130CC09B810E94A40D1B821A8242C0011117C08D
S1130CD050E08C819D810E94BA132C8D8C819D8162
S1130CE0820F911D9D838C832A813B8182179307F8
S1130CF050F1888199819D838C8380E029C050E0E4
S1130D008E819F810E94BA138C8D90E0919581957C
S1130D1091092E813F81280F391F3F832E834881FB
S1130D2059812417350730F42A813B81820F931FA0
S1130D309F838E83023049F4112349F0115080E0DF
S1130D4007C080E005C080E003C080E001C080E00F
S1130D501F5F1A8FDF91CF911F910F910895FC01AE
S1130D60448D4423A9F050E026813781240F351F98
S1130D7037832683828193812817390720F0808165
S1130D80918197838683CB01668177810E94BA1310
S1130D9008951F93CF93DF93EC010FB6F8940F924D
S1130DA01E8D0BC08989882351F0CE0141960E9483
S1130DB0B20C81110E943E0D115011169CF38FEF5D
S1130DC08E8F0F900FBE0FB6F8940F921D8D0BC02F
S1130DD08885882351F0CE0108960E94B20C8111B7
S1130DE00E943E0D115011169CF38FEF8D8F0F90C2
S1130DF00FBEDF91CF911F910895CF93DF93EC0144
S1130E000FB6F8940F92E881F9818B8D90E02C8DC8
S1130E1030E0829FA001839F500D929F500D1124BA
S1130E204E0F5F1F5B834A831A8EFD83EC83019709
S1130E30289FA001299F500D389F500D1124CF01E8
S1130E40840F951F9F838E838FEF8D8F8E8F6111FB
S1130E500CC08885882389F0CE0108960E94B20CC4
S1130E60882359F00E947D0508C0CE0108960E948F
S1130E704F04CE0141960E944F040F900FBE81E0B3
S1130E80DF91CF9108950F931F93F801611103C06F
S1130E901183008302C051834083838F648F61E098
S1130EA0CF010E94FD061F910F910895DF92EF92EA
S1130EB0FF920F931F93CF93DF93E82EF62ED42E39
S1130EC0662321F0869FC001112402C080E090E0D7
S1130ED04F960E94A003EC01009749F08C012D2D40
S1130EE0AC01415E5F4F6F2D8E2D0E944307CE01F2
S1130EF0DF91CF911F910F91FF90EF90DF900895B4
S1130F00CF92DF92EF92FF920F931F93CF93DF93D1
S1130F1000D000D01F92CDB7DEB78C017B015D837A
S1130F204C83C22ED12C0FB6F8940F92F801928DF7
S1130F30838D981718F0F2E0CF1219C04C2DB70129
S1130F40C8010E945006F8019189992349F0C8010B
S1130F5041960E94B20C882331F00E947D0503C0A3
S1130F6081110E947D050F900FBE81E04DC08C81E0
S1130F709D81892B21F40F900FBE80E045C0D110D4
S1130F8006C0CE0101960E94FA0CDD24D3940F9082
S1130F900FBE0E94D30A0FB6F8940F92F801858D04
S1130FA08F3F09F4158EF801868D8F3F09F4168E54
S1130FB00F900FBEBE016C5F7F4FCE0101960E9461
S1130FC0050D81111BC0C8010E944206882381F0CF
S1130FD06C817D81C80108960E94A00CC8010E9402
S1130FE0C9060E94930B81119ECF0E947D059BCF61
S1130FF0C8010E94C9060E94930B95CFC8010E94A4
S1131000C9060E94930B80E00F900F900F900F90F1
S11310100F90DF91CF911F910F91FF90EF90DF9090
S1131020CF9008958F929F92BF92CF92DF92EF92CA
S1131030FF920F931F93CF93DF9300D000D01F92A2
S1131040CDB7DEB78C016B015D834C83B22EE12CEE
S11310500FB6F8940F92F801F28CFF2091F186807C
S11310609780B601C8010E94AF06B11019C0FA9466
S1131070F801F28E80819181892B29F40E94E40D7C
S1131080F80193838283F80180858823B1F0C80135
S113109008960E94B20C882381F00E947D050DC041
S11310A0F801978286828189882339F0C8014196A4
S11310B00E94B20C81110E947D050F900FBE81E049
S11310C061C08C819D81892B21F40F900FBE80E03B
S11310D059C0E11006C0CE0101960E94FA0CEE241C
S11310E0E3940F900FBE0E94D30A0FB6F8940F92A8
S11310F0F801858D8F3F09F4158EF801868D8F3F99
S113110009F4168E0F900FBEBE016C5F7F4FCE01A7
S113111001960E94050D811129C0C8010E9435065F
S11311208823F1F0F80180819181892B49F40FB66D
S1131130F8940F92828193810E94420D0F900FBE0A
S11311406C817D81C80141960E94A00CC8010E9457
S1131150C9060E94930B81117BCF0E947D0578CF35
S1131160C8010E94C9060E94930B72CFC8010E9455
S1131170C9060E94930BC8010E943506882309F40E
S113118067CF80E00F900F900F900F900F90DF913A
S1131190CF911F910F91FF90EF90DF90CF90BF9070
S11311A09F908F900895E091A804F091A904808104
S11311B0811107C08FEF9FEF9093800480937F0489
S11311C00895E091A804F091A9040580F681E02D2A
S11311D00680F781E02D828193819093800480932F
S11311E07F040895CF93DF93EC018F89988D0E943B
S11311F01C04CE010E941C04DF91CF9108956F92CC
S11312007F928F929F92AF92BF92CF92DF92EF9292
S11312100F931F93CF93DF93CDB7DEB74C01F50146
S11312208789908D215031093C01620E731E20E0A4
S11312300FC0822F90E0FB01E80FF91F3081D50128
S1131240A80FB91F59963C938081882319F02F5F0A
S1131250283078F3F50110A2F4E0FE1518F4689430
S1131260EE24E2F8F501E68AE1A212A2C501029693
S11312700E945D04C5010C960E945D04F501B186CF
S1131280A08685E090E08E19910995878487B38ABA
S1131290A28A13A214A215A216A217A2A801B4012D
S11312A0C3010E94E204F50191838083C114D10437
S11312B019F0F601B182A082DF91CF911F910F91B5
S11312C0EF90DF90CF90BF90AF909F908F907F90E2
S11312D06F900895CF93C0E010C08C2F90E09C01D4
S11312E0220F331F220F331F220F331F820F931F2E
S11312F084549B4F0E944F04CF5FC53070F383EB3F
S113130094E00E944F048AEA94E00E944F048DE91D
S113131094E00E944F0484E994E00E944F048AE818
S113132094E00E944F0483EB94E09093A90480938B
S1131330A8048AEA94E09093A7048093A604CF912A
S11313400895CF93DF93EC010FB6F8940F92809138
S113135089048F5F809389048091E9049091EA0461
S1131360892B59F4D093EA04C093E9048091890449
S1131370813099F40E946A0910C08091850481111A
S11313800CC0E091E904F091EA0496898E898917EA
S113139020F0D093EA04C093E904809181048F5F24
S11313A0809381048E8990918604981710F4809319
S11313B0860490E09C01220F331F220F331F220F5B
S11313C0331F820F931FBE016E5F7F4F84549B4F68
S11313D00E9461040F900FBE80918504882351F010
S11313E0E091E904F091EA0496898E89981710F443
S11313F00E947D05DF91CF910895FF920F931F9373
S1131400CF93DF93EC01F62E0091870410918804AA
S11314108091E9049091EA0402960E94B304CF3FBC
S11314208FEFD80769F4FF2059F06091E9047091B7
S1131430EA046E5F7F4F8AE894E00E9461042FC043
S1131440C00FD11FE091E904F091EA04D383C28371
S1131450C017D10768F46091E9047091EA0480919F
S1131460A6049091A7046E5F7F4F0E94820417C068
S11314706091E9047091EA048091A8049091A90410
S11314806E5F7F4F0E94820480917F04909180045C
S1131490C817D90720F4D0938004C0937F04DF9148
S11314A0CF911F910F91FF9008952F923F924F92E9
S11314B05F926F927F928F929F92AF92BF92CF92E0
S11314C0DF92EF92FF920F931F93CF93DF933C0130
S11314D01B015A012901CA010E94A0036C01892B36
S11314E071F088E290E00E94A003EC01892B19F0CE
S11314F0D88ECF8A06C0C6010E941C0402C0C0E078
S1131500D0E0209791F0950140E050E0812C912C9F
S11315105E016701E02E8201B101C3010E94FF0850
S1131520CE010E94A10981E001C08FEFDF91CF912C
S11315301F910F91FF90EF90DF90CF90BF90AF90ED
S11315409F908F907F906F905F904F903F902F90DF
S11315500895EF92FF920F930F2EFDE7EF2EF4E024
S1131560FF2EF02D00E020E030E040E550E06AE797
S113157070E089E49CE00E94550A813081F4F8947B
S11315808FEF9FEF9093800480937F0481E080939A
S1131590850410928804109287040E944E050F91CE
S11315A0FF90EF90089580917C048F5F80937C047A
S11315B00895DF92EF92FF920F931F93CF93DF93DF
S11315C080917C04811197C0E0908704F090880496
S11315D08FEFE81AF80AF0928804E0928704E11485
S11315E0F104B9F48091A8049091A9042091A6046F
S11315F03091A7043093A9042093A8049093A704DE
S11316008093A604809182048F5F809382040E9459
S1131610D30880917F0490918004E816F90628F499
S1131620D12C53C0DD24D39401C0D12CE091A80463
S1131630F091A9048081811107C08FEF9FEF9093EF
S1131640800480937F0441C0E091A804F091A90430
S11316500580F681E02DC681D7818A819B81E816B9
S1131660F90628F49093800480937F042EC08E01A1
S11316700E5F1F4FC8010E94B3048C899D89892B7A
S113168021F0CE010C960E94B3048E8990918604B9
S1131690981710F48093860490E09C01220F331F66
S11316A0220F331F220F331F820F931FB80184545C
S11316B09B4F0E9461049E89E091E904F091EA0441
S11316C08689981708F0AECFB1CFE091E904F09184
S11316D0EA04868990E0FC01EE0FFF1FEE0FFF1F66
S11316E0EE0FFF1F8E0F9F1FFC01E454FB4F808100
S11316F0823040F409C0809184048F5F8093840415
S1131700D12C02C0DD24D39480918304882311F06A
S1131710DD24D3948D2DDF91CF911F910F91FF90F4
S1131720EF90DF9008950F931F93CF93DF930FB63D
S1131730F8940F9280917C04815080937C04809172
S11317407C04811158C080918904811133C056C032
S1131750E091A204F091A304C681D781CE010C9636
S11317600E94B3048E010E5F1F4FC8010E94B30490
S11317708E8990918604981710F48093860490E0E3
S11317809C01220F331F220F331F220F331F820F9E
S1131790931FB80184549B4F0E9461049E89E09179
S11317A0E904F091EA048689981730F081E0809387
S11317B0830402C0C0E0D0E080919D048111C8CFB1
S11317C0CD2B11F00E94D308C0918404CC2359F08E
S11317D00E94D90A882319F081E080938304C150C0
S11317E0B9F71092840480918304882331F00E9415
S11317F07D0581E003C080E001C080E00F900FBE52
S1131800DF91CF911F910F910895CF93DF93EC0156
S1131810892B49F00E94D30A60E0CE010E94FD09A1
S11318200E94930B01C080E0811102C00E947D05DB
S1131830DF91CF910895CF93DF9324C00E94D30A00
S1131840C09194040E94930BCC23E1F00FB6F8945A
S11318500F92E0919904F0919A04C681D781CE0148
S113186002960E94B3048091890481508093890474
S1131870809193048150809393040F900FBECE0106
S11318800E94F208809193048111D8CFDF91CF9107
S113189008950E941B0CFDCF80917C04882321F0C5
S11318A081E0809383040895109283042091860438
S11318B001C02150822F90E0FC01EE0FFF1FEE0FBC
S11318C0FF1FEE0FFF1FE80FF91FE454FB4F308199
S11318D0332379F3AC01440F551F440F551F440FB4
S11318E0551F480F591FDF010180F281E02D02804E
S11318F0F381E02D1296FC93EE93119741545B4FC4
S1131900E417F50729F442815381FD015283418391
S1131910FC01EE0FFF1FEE0FFF1FEE0FFF1F8E0FD8
S11319209F1FFC01E454FB4F0180F281E02D86816E
S113193097819093EA048093E904209386040895A0
S1131940CF93DF93EB016091E9047091EA04645F43
S11319507F4F0E94820461E0CE010E94FD09DF9165
S1131960CF9108950F931F93CF93DF93DC011596C6
S1131970ED91FC911697C681D7818E01045F1F4FAC
S1131980C8010E94B30480917C0481111CC00A50D8
S11319901109C8010E94B3048E8990918604981796
S11319A010F48093860490E09C01220F331F220FD1
S11319B0331F220F331F820F931FB80184549B4F90
S11319C00E94610405C0B8018DE994E00E9461049D
S11319D09E89E091E904F091EA048689891720F44C
S11319E081E08093830401C080E0DF91CF911F9157
S11319F00F91089520918204FC0120832091870493
S1131A00309188043283218308950FB6F8940F929D
S1131A104091870450918804DB012D913C912F3F24
S1131A20BFEF3B0719F1DC01FC91E0918204FE1742
S1131A3039F01196ED91FC9112974E175F07C0F49F
S1131A40DC011196ED91FC911297DA01AE1BBF0BEC
S1131A50A217B30778F4DB01E41BF50B2E0F3F1F2D
S1131A602D933C930E94FA0C80E005C080E003C0F3
S1131A7081E001C081E00F900FBE089581E0809362
S1131A80830408950F931F93CF93DF93FC01892B55
S1131A9009F455C02689A091E904B091EA04569648
S1131AA08C91281708F04BC084859585992364F0A0
S1131AB0A091E904B091EA0456963C9185E090E047
S1131AC0831B9109958784878285938530E0A901DA
S1131AD0440F551F440F551F440F551F240F351F26
S1131AE024543B4F8217930719F58F01EF01229677
S1131AF0CE010E94B304E091E904F091EA048689DE
S1131B00F801868B90918604981710F480938604CC
S1131B1090E09C01220F331F220F331F220F331F2B
S1131B20820F931FBE0184549B4F0E94610407C01F
S1131B30A091E904B091EA0456968C91868BDF91CA
S1131B40CF911F910F9108950F931F93CF93DF931C
S1131B50FC01892B79F182A1815082A3268991A16C
S1131B60291751F181112AC0EF018F010E5F1F4F18
S1131B70C8010E94B30489A18E8B25E030E0281BA4
S1131B8031093D872C8790918604981710F480932F
S1131B90860490E09C01220F331F220F331F220F73
S1131BA0331F820F931FB80184549B4F0E9461041A
S1131BB081E005C080E003C080E001C080E0DF91E7
S1131BC0CF911F910F9108958091E9049091EA04B7
S1131BD0892B39F0E091E904F091EA0482A18F5F46
S1131BE082A38091E9049091EA0408951F93CF930E
S1131BF0DF93D82FC62F192F10650E941A11812F39
S1131C000E943C118D2F0E9468118C2F0E94681134
S1131C100E9488118FE19EE40197F1F700C0000053
S1131C20DF91CF911F9108950F931F93CF93DF936B
S1131C301F92CDB7DEB7082F192F10650E941A1115
S1131C40812F0E943C11802F0E9468110E942B1149
S1131C50812F0E945211CE0101960E9477110E9499
S1131C6088118FE19EE40197F1F700C0000089819B
S1131C700F90DF91CF911F910F910895CF93C82FAB
S1131C8060EF80E00E94810F6C2F6295607F80E09E
S1131C900E94910FCF91089587B18F7787B987B14B
S1131CA0806487B986B1887F86B986B1876086B932
S1131CB086B1806886B9089597B1907E97B997B137
S1131CC0892B87B986B1806486B9349BFECF86B1EF
S1131CD0806186B984B195B10895423008F06FC02F
S1131CE04130A1F5813089F028F08230C9F0833089
S1131CF011F108952AB381E090E002C0880F991F82
S1131D006A95E2F7822B8ABB089527B381E090E0BD
S1131D1002C0880F991F6A95E2F7822B87BB08954A
S1131D2024B381E090E002C0880F991F6A95E2F71E
S1131D30822B84BB089521B381E090E002C0880F18
S1131D40991F6A95E2F7822B81BB0895411137C030
S1131D50813091F028F08230D9F0833029F1089550
S1131D602AB381E090E002C0880F991F6A95E2F7D8
S1131D70809582238ABB089527B381E090E002C056
S1131D80880F991F6A95E2F78095822387BB08958F
S1131D9024B381E090E002C0880F991F6A95E2F7AE
S1131DA08095822384BB089521B381E090E002C032
S1131DB0880F991F6A95E2F78095822381BB089565
S1131DC0423008F06FC04130A1F5813089F028F02D
S1131DD08230C9F0833011F108952BB381E090E093
S1131DE002C0880F991F6A95E2F7822B8BBB089576
S1131DF028B381E090E002C0880F991F6A95E2F74A
S1131E00822B88BB089525B381E090E002C0880F3F
S1131E10991F6A95E2F7822B85BB089522B381E06E
S1131E2090E002C0880F991F6A95E2F7822B82BB6B
S1131E300895411137C0813091F028F08230D9F0F3
S1131E40833029F108952BB381E090E002C0880F1C
S1131E50991F6A95E2F7809582238BBB089528B376
S1131E6081E090E002C0880F991F6A95E2F780959F
S1131E70822388BB089525B381E090E002C0880FD7
S1131E80991F6A95E2F78095822385BB089522B352
S1131E9081E090E002C0880F991F6A95E2F780956F
S1131EA0822382BB0895813079F028F08230A9F032
S1131EB08330E1F024C089B390E002C09595879502
S1131EC06A95E2F78170089586B390E002C0959513
S1131ED087956A95E2F78170089583B390E002C014
S1131EE0959587956A95E2F78170089580B390E09F
S1131EF002C0959587956A95E2F78170089580E010
S1131F000895813041F028F0823039F0833039F07F
S1131F1008956ABB089567BB089564BB089561BBC7
S1131F200895813041F028F0823039F0833039F05F
S1131F3008956BBB089568BB089565BB089562BBA3
S1131F4008951F920F920FB60F9211242F933F936F
S1131F504F935F936F937F938F939F93AF93BF93AD
S1131F60EF93FF93E091EB04F091EC040995FF915A
S1131F70EF91BF91AF919F918F917F916F915F91FD
S1131F804F913F912F910F900FBE0F901F90189576
S1131F901F920F920FB60F9211242F933F934F93DA
S1131FA05F936F937F938F939F93AF93BF93EF93BD
S1131FB0FF93E091ED04F091EE040995FF91EF9108
S1131FC0BF91AF919F918F917F916F915F914F914D
S1131FD03F912F910F900FBE0F901F9018951F9255
S1131FE00F920FB60F9211242F933F934F935F9349
S1131FF06F937F938F939F93AF93BF93EF93FF93CD
S1132000E091EF04F091F0040995FF91EF91BF91F5
S1132010AF919F918F917F916F915F914F913F917C
S11320202F910F900FBE0F901F9018958FB7806857
S11320308FBF089593B7987F93BF93B7936093BF6F
S113204081110AC083B7877F83BF83B78F7B83BF28
S113205089B7816089BF0895813059F483B7886056
S113206083BF83B78F7B83BF89B7826089BF89EFC2
S11320708CBF0895662319F0613031F00895909370
S1132080F2048093F10408959093F4048093F3048C
S113209008951F920F920FB60F9211242F933F931E
S11320A04F935F936F937F938F939F93AF93BF935C
S11320B0EF93FF93E091F104F091F2040995FF91FD
S11320C0EF91BF91AF919F918F917F916F915F91AC
S11320D04F913F912F910F900FBE0F901F90189525
S11320E01F920F920FB60F9211242F933F934F9389
S11320F05F936F937F938F939F93AF93BF93EF936C
S1132100FF93E091F304F091F4040995FF91EF91AA
S1132110BF91AF919F918F917F916F915F914F91FB
S11321203F912F910F900FBE0F901F90189595B56A
S1132130986095BD95B5906495BD95B5987F95BD0E
S113214095B5936095BD95B5906295BD95B59F7E07
S113215095BD682F70E080E090E00E949F122AE015
S113216037ED43E250E40E942B130E946E1263BDCC
S113217008951F920F920FB60F9211242F933F933D
S11321804F935F936F937F938F939F93AF93BF937B
S1132190EF93FF93E091F504F091F6040995FF9114
S11321A0EF91BF91AF919F918F917F916F915F91CB
S11321B04F913F912F910F900FBE0F901F90189544
S11321C01F920F920FB60F9211242F933F934F93A8
S11321D05F936F937F938F939F93AF93BF93EF938B
S11321E0FF93E091F704F091F8040995FF91EF91C2
S11321F0BF91AF919F918F917F916F915F914F911B
S11322003F912F910F900FBE0F901F9018959CE057
S113221090B991B19E7F91B991B19D7F91B9882375
S113222011F0880F82B986B7806486BF86B7846050
S113223086BF089586B7806286BF86B7806886BFEA
S113224006B607FEFDCF81B1887F883011F480E0A7
S1132250089581E0089586B7806286BF86B7806856
S113226086BF06B607FEFDCF81B1887F803111F4A9
S113227080E0089582E00895880F83B983B18E7F4A
S113228083B986B78F7D86BF86B7806886BF06B65A
S113229007FEFDCF81B1887F883111F480E0089575
S11322A083E00895880F83B983B1816083B986B7C9
S11322B08F7D86BF86B7806886BF06B607FEFDCFD2
S11322C081B1887F803411F480E0089584E008951A
S11322D083B986B7806886BF06B607FEFDCF81B195
S11322E0887F883211F480E0089585E00895FC0128
S11322F096B7906896BF06B607FEFDCF91B1987F5A
S1132300903521F483B1808380E0089586E00895B8
S113231086B7806186BF86B7806886BF08955058A7
S1132320BB27AA270E94A7110C94F1120E94E31262
S113233038F00E94EA1220F039F49F3F19F426F491
S11323400C94E0120EF4E095E7FB0C94DA12E92FFA
S11323500E94021358F3BA1762077307840795079C
S113236020F079F4A6F50C9424130EF4E0950B2ECA
S1132370BA2FA02D0B01B90190010C01CA01A001D3
S11323801124FF27591B99F0593F50F4503E68F12E
S11323901A16F040A22F232F342F4427585FF3CF6F
S11323A0469537952795A795F0405395C9F77EF440
S11323B01F16BA0B620B730B840BBAF09150A1F089
S11323C0FF0FBB1F661F771F881FC2F70EC0BA0F0F
S11323D0621F731F841F48F4879577956795B79597
S11323E0F7959E3F08F0B0CF9395880F08F0992792
S11323F0EE0F9795879508950E9410120C94F11290
S11324000E94EA1258F00E94E31240F029F45F3F60
S113241029F00C94DA1251110C9425130C94E01247
S11324200E94021368F39923B1F3552391F3951B8A
S1132430550BBB27AA2762177307840738F09F5FE1
S11324405F4F220F331F441FAA1FA9F335D00E2E4E
S11324503AF0E0E832D091505040E695001CCAF7BB
S11324602BD0FE2F29D0660F771F881FBB1F26177E
S113247037074807AB07B0E809F0BB0B802DBF0155
S1132480FF2793585F4F3AF09E3F510578F00C9424
S1132490DA120C9425135F3FE4F3983ED4F3869547
S11324A077956795B795F7959F5FC9F7880F911D45
S11324B09695879597F90895E1E0660F771F881F31
S11324C0BB1F621773078407BA0720F0621B730BE4
S11324D0840BBA0BEE1F88F7E09508950E940A1347
S11324E088F09F5798F0B92F9927B751B0F0E1F0D1
S11324F0660F771F881F991F1AF0BA95C9F714C081
S1132500B13091F00E942413B1E008950C94241387
S1132510672F782F8827B85F39F0B93FCCF38695B9
S113252077956795B395D9F73EF490958095709516
S113253061957F4F8F4F9F4F0895E89409C097FB93
S11325403EF490958095709561957F4F8F4F9F4F86
S11325509923A9F0F92F96E9BB279395F6958795CA
S113256077956795B795F111F8CFFAF4BB0F11F48D
S113257060FF1BC06F5F7F4F8F4F9F4F16C0882334
S113258011F096E911C0772321F09EE8872F762F6A
S113259005C0662371F096E8862F70E060E02AF0AB
S11325A09A95660F771F881FDAF7880F9695879597
S11325B097F9089597F99F6780E870E060E00895BF
S11325C09FEF80EC089500240A9416161706180647
S11325D00906089500240A94121613061406050623
S11325E00895092E0394000C11F4882352F0BB0FB4
S11325F040F4BF2B11F460FF04C06F5F7F4F8F4F17
S11326009F4F089557FD9058440F551F59F05F3F51
S113261071F04795880F97FB991F61F09F3F79F000
S113262087950895121613061406551FF2CF469582
S1132630F1DF08C0161617061806991FF1CF869504
S11326407105610508940895E894BB2766277727E8
S1132650CB0197F908950E943E130C94F1120E9445
S1132660E31238F00E94EA1220F0952311F00C9442
S1132670DA120C94E01211240C9425130E94021314
S113268070F3959FC1F3950F50E0551F629FF001C1
S1132690729FBB27F00DB11D639FAA27F00DB11DDA
S11326A0AA1F649F6627B00DA11D661F829F222763
S11326B0B00DA11D621F739FB00DA11D621F839FEA
S11326C0A00D611D221F749F3327A00D611D231FC0
S11326D0849F600D211D822F762F6A2F11249F570E
S11326E050409AF0F1F088234AF0EE0FFF1FBB1F11
S11326F0661F771F881F91505040A9F79E3F5105D0
S113270080F00C94DA120C9425135F3FE4F3983EA6
S1132710D4F3869577956795B795F795E7959F5F79
S1132720C1F7FE2B880F911D9695879597F908950B
S1132730A1E21A2EAA1BBB1BFD010DC0AA1FBB1FC1
S1132740EE1FFF1FA217B307E407F50720F0A21B33
S1132750B30BE40BF50B661F771F881F991F1A94A0
S113276069F760957095809590959B01AC01BD01CA
S1132770CF010895FB01DC0102C001900D9241508C
S10D27805040D8F70895F894FFCFF5
S113278AE7037461736B31007461736B32007461B3
S113279A736B33007461736B340049444C45000015
S9030000FC
